:0400000086EF03F094
:10060000000A2A2A2A2A2A2A2A2A2A2A2A2A2A2A94
:100610002A2A2A2A2A2A2A2A2A2A2A2A2A2A2A2A3A
:100620002A2A2A2A2A2A2A2A2A2A2A2A0A002A2A74
:100630002A2A2A2A2A2A2A2050726F6772616D207C
:10064000436F6D706C65746521202A2A2A2A2A2A34
:100650002A2A2A0A002A2A536B656C65746F6E2059
:10066000636F646520666F722041737369676E6D96
:0B067000656E7420322E2A2A0A00005A
:10067C007AEC03F0020E026E060E036E65EC03F0CC
:10068C00550E026E060E036E65EC03F0020E026E42
:10069C00060E036E65EC03F0010E026E060E036E81
:1006AC0065EC03F02E0E026E060E036E65EC03F085
:1006BC00020E026E060E036E65EC03F0FFD7040EFD
:1006CC00046E000E056E03D006508DEC03F002C0D4
:1006DC00F6FF03C0F7FF024A032A0800F5CF06F025
:1006EC000650D8B41200F0D7AC84B896330EAF6E67
:1006FC00AC98AC8A000EF26EAB9CAB8EAB98120031
:10070C00000EF86E060EF76E00013EEF03F0016E60
:0A071C009EA8FED701C0ADFF120039
:020000040020DA
:08000000FFFFFFFFFFFFFFFF00
:020000040030CA
:0E000000FF081F1EFF8B81FF0FC00FE00F4097
:00000001FF
